:100000000C945D000C9485000C9485000C94850084
:100010000C9485000C9485000C9485000C9485004C
:100020000C9485000C9485000C9485000C9485003C
:100030000C9485000C9485000C9485000C9485002C
:100040000C9415040C9485000C94E3030C94BD03EC
:100050000C9485000C9485000C9485000C9485000C
:100060000C9485000C9485000000000024002700FB
:100070002A0000000000250028002B0004040404CE
:100080000404040402020202020203030303030342
:10009000010204081020408001020408102001021F
:1000A00004081020000000080002010000030407FB
:1000B00000000000000000005F0411241FBECFEF0D
:1000C000D8E0DEBFCDBF11E0A0E0B1E0ECECFBE09A
:1000D00002C005900D92AE33B107D9F721E0AEE32F
:1000E000B1E001C01D92AC3FB207E1F710E0CDE5F1
:1000F000D0E004C02197FE010E94DE05CC35D10777
:10010000C9F70E94A9040C94E4050C940000AF9276
:10011000BF92CF92DF92EF92FF920F931F93CF93F4
:10012000DF936C017B018B01040F151FEB015E0156
:10013000AE18BF08C017D10759F06991D601ED91EB
:10014000FC910190F081E02DC6010995892B79F78A
:10015000C501DF91CF911F910F91FF90EF90DF903C
:10016000CF90BF90AF900895FC01538D448D252F03
:1001700030E0842F90E0821B930B541710F0CF9641
:10018000089501970895FC01918D828D981761F073
:10019000A28DAE0FBF2FB11D5D968C91928D9F5F8A
:1001A0009F73928F90E008958FEF9FEF0895FC0169
:1001B000918D828D981731F0828DE80FF11D858D1C
:1001C00090E008958FEF9FEF0895FC01918D228DAF
:1001D000892F90E0805C9F4F821B91098F73992734
:1001E000089587E491E00E94E50021E0892B09F45D
:1001F00020E0822F089580E090E0892B29F00E9472
:10020000F10081110C9400000895FC01A48DA80F49
:10021000B92FB11DA35ABF4F2C91848D90E0019648
:100220008F739927848FA689B7892C93A089B18968
:100230008C91837080648C93938D848D981306C009
:100240000288F389E02D80818F7D80830895EF926D
:10025000FF920F931F93CF93DF93EC0181E0888F80
:100260009B8D8C8D98131AC0E889F989808185FF50
:1002700015C09FB7F894EE89FF896083E889F989F2
:1002800080818370806480839FBF81E090E0DF91F4
:10029000CF911F910F91FF90EF900895F62E0B8D47
:1002A00010E00F5F1F4F0F731127E02E8C8D8E1102
:1002B0000CC00FB607FCFACFE889F989808185FF69
:1002C000F5CFCE010E940501F1CFEB8DEC0FFD2F94
:1002D000F11DE35AFF4FF0829FB7F8940B8FEA8924
:1002E000FB8980818062CFCFCF93DF93EC01888D33
:1002F0008823B9F0AA89BB89E889F9898C9185FDA1
:1003000003C0808186FD0DC00FB607FCF7CF8C912E
:1003100085FFF2CF808185FFEDCFCE010E940501E0
:10032000E9CFDF91CF91089590E0FC01EC55FF4FAC
:100330002491FC01E057FF4F3491FC01E458FF4F3A
:10034000E491EE23C9F0222339F0233001F1A8F41F
:10035000213019F1223029F1F0E0EE0FFF1FEE58A5
:10036000FF4FA591B4918FB7F894EC91611126C01D
:1003700030953E233C938FBF08952730A9F0283055
:10038000C9F0243049F7809180008F7D03C08091AF
:1003900080008F7780938000DFCF84B58F7784BD16
:1003A000DBCF84B58F7DFBCF8091B0008F778093BA
:1003B000B000D2CF8091B0008F7DF9CF3E2BDACF45
:1003C000EEEAF0E0E491E33039F160F4E130D1F0AD
:1003D000E230E9F060E0803891050CF061E08AE0FD
:1003E0000C949401E73011F1E83041F1E43091F7D9
:1003F0002091800020622093800090938B00809356
:100400008A00089594B5906894BD87BD089594B509
:10041000906294BD88BD089520918000206820934B
:100420008000909389008093880008959091B00097
:1004300090689093B0008093B30008959091B000BD
:1004400090629093B0008093B4000895CF93DF93AF
:1004500090E0FC01E057FF4F249184589F4FFC012E
:1004600084918823D1F090E0880F991FFC01E8590E
:10047000FF4FA591B491FC01EE58FF4FC591D49167
:1004800061110EC09FB7F8948C91E22FE0958E23F6
:100490008C932881E223E8839FBFDF91CF91089559
:1004A0008FB7F894EC91E22BEC938FBFF6CF0895C1
:1004B00090E080E00895FC0101900020E9F7319779
:1004C000AF01481B590BBC0184EE91E00C948700EE
:1004D000CF93DF93EC0160E08E810E94940161E094
:1004E0008E810E94940160E08E810E9494018BE8CD
:1004F00091E00197F1F7DF91CF910895CF92DF92CC
:10050000EF92FF920F931F93CF93DF936C017C01C7
:1005100087E0E80EF11CD0E0C0E0062F10E0B80143
:100520000C2E02C0759567950A94E2F76170F70189
:1005300081917F010E9494012196C430D10579F701
:10054000C601DF91CF911F910F91FF90EF90DF9047
:10055000CF900C946802CF92DF92EF92FF920F93AC
:100560001F93CF93DF93EC01F62E642F8C810E94B2
:1005700094018D818F3F19F060E00E9494010F2D4E
:1005800010E08F8584FF25C06E0187E0C80ED11C66
:10059000F12CE12CB8010E2C02C0759567950A94D8
:1005A000E2F76170F60181916F010E949401FFEF03
:1005B000EF1AFF0A88E0E816F10461F7CE01DF9137
:1005C000CF911F910F91FF90EF90DF90CF900C94FF
:1005D0006802B80184E0759567958A95E1F7CE01C8
:1005E0000E947E026F2DCE01DF91CF911F910F915E
:1005F000FF90EF90DF90CF900C947E0240E0682F48
:1006000084EE91E00C94AB02CF93DF93823029F417
:100610009091F30198609093F3018093F701109209
:10062000F80180E48093F90180E18093FA0180E58C
:100630008093FB0161E08091E8010E942602809195
:10064000E9018F3F19F061E00E94260261E080918C
:10065000EA010E942602C4EED1E09E01245E3140F0
:100660008091F30184FD0BC084E090E0219628176F
:10067000390744F461E08E810E942602EECF88E0C3
:1006800090E0F4CF8BE39DE00197F1F760E080917B
:10069000E8010E94940160E08091EA010E949401C7
:1006A0008091E9018F3F19F060E00E9494018091F0
:1006B000F30184FD39C063E084EE91E00E947E0284
:1006C000CBE4D6E4CE010197F1F763E084EE91E04C
:1006D0000E947E022197F1F763E084EE91E00E9490
:1006E0007E0283E592E00197F1F762E084EE91E00B
:1006F0000E947E028091F30180620E94FE0284E0EB
:100700008093F4018CE00E94FE0281E00E94FE02D0
:100710008BE39FE10197F1F782E08093F50186E09A
:10072000DF91CF910C94FE0280620E94FE028BE466
:1007300096E40197F1F78091F30180620E94FE0236
:1007400083E592E00197F1F78091F30180620E94C6
:10075000FE02D0CFE1E08091F7018111E0E0E19568
:10076000F0E0EC51FE4F848980680C94FE0241E079
:100770000E94AB0281E090E008951F920F920FB6A5
:100780000F9211242F933F934F935F936F937F9317
:100790008F939F93AF93BF93EF93FF9387E491E081
:1007A0000E940501FF91EF91BF91AF919F918F91B1
:1007B0007F916F915F914F913F912F910F900FBE5D
:1007C0000F901F9018951F920F920FB60F92112441
:1007D0002F938F939F93EF93FF93E0915701F091A5
:1007E00058018081E0915D01F0915E0182FD1BC0A6
:1007F0009081809160018F5F8F73209161018217DA
:1008000041F0E0916001F0E0E95BFE4F958F80934D
:100810006001FF91EF919F918F912F910F900FBEEB
:100820000F901F9018958081F4CF1F920F920FB6F2
:100830000F9211242F933F938F939F93AF93BF9366
:100840008091430190914401A0914501B0914601EE
:100850003091420123E0230F2D3758F50196A11D59
:10086000B11D209342018093430190934401A093D2
:100870004501B093460180913E0190913F01A091C6
:100880004001B09141010196A11DB11D80933E012F
:1008900090933F01A0934001B0934101BF91AF916C
:1008A0009F918F913F912F910F900FBE0F901F90AE
:1008B000189526E8230F0296A11DB11DD2CFE7E4BB
:1008C000F1E01382128288EE93E0A0E0B0E084832E
:1008D0009583A683B78384E091E09183808385EC40
:1008E00090E09587848784EC90E09787868780ECFA
:1008F00090E0918B808B81EC90E0938B828B82ECEB
:1009000090E0958B848B86EC90E0978B868B118E94
:10091000128E138E148EE4EEF1E01382128286E1C1
:1009200091E0918380838CE084838FEF85838BE0DB
:10093000868385E0878384E0808783E0818782E007
:1009400082871386148615861686178681E00C9496
:100950000403789484B5826084BD84B5816084BDCD
:1009600085B5826085BD85B5816085BD80916E004D
:10097000816080936E00109281008091810082607E
:1009800080938100809181008160809381008091BB
:1009900080008160809380008091B10084608093AA
:1009A000B1008091B00081608093B00080917A00A6
:1009B000846080937A0080917A00826080937A00CC
:1009C00080917A00816080937A0080917A008068BB
:1009D00080937A001092C10082E00E940403E091AB
:1009E0005701F091580182E08083E0915301F0912A
:1009F00054011082E0915501F09156018FEC8083F3
:100A000010925F01E0915B01F0915C0186E08083D0
:100A1000E0915901F0915A01808180618083E091D9
:100A20005901F0915A01808188608083E0915901D9
:100A3000F0915A01808180688083E0915901F091A2
:100A40005A0180818F7D808361E088E00E942602C8
:100A500061E089E00E94260261E08AE00E942602AD
:100A600061E086E00E94260261E087E00E942602A3
:100A700060E08EE00E942602C0E400E010E0C09337
:100A80007C0080917A00806480937A0080917A0063
:100A900086FDFCCF90917800809179008927982776
:100AA00089278A3291050CF46CC09C012A523109C5
:100AB0002531310548F560E086E00E94940161E04F
:100AC00087E00E94940160E088E00E94940161E068
:100AD00089E00E94940161E08AE00E94260280E49D
:100AE00090E00E94E0010E94AA038EE191E00E9442
:100AF0005B020115110519F20E94F100882309F427
:100B0000BECF0E940000BBCFCF970A97E8F460E009
:100B100086E00E94940161E087E00E94940160E019
:100B200088E00E94940161E089E00E94940161E004
:100B30008AE00E94260280E890E00E94E0010E9484
:100B4000AA0386E291E0D3CF61E086E00E9494019F
:100B500060E087E00E94940160E088E00E949401D8
:100B600061E089E00E94940161E08AE00E9426022F
:100B700061E08AE00E9494010E94AA038EE291E063
:100B8000B6CF60E086E00E94940160E087E00E94BA
:100B9000940160E088E00E94940160E089E00E9496
:100BA000940161E08AE00E94260260E08AE00E94EF
:100BB00094010E94AA0386E391E099CFEE0FFF1FF4
:0C0BC0000590F491E02D0994F894FFCF0B
:100BCC000000000027018700B4007401E500C30099
:100BDC00D70000000000B70387005802570253707B
:100BEC006565642031005370656564203200537074
:0E0BFC0065656420330046616E204F4646005A
:00000001FF
